:020000040800F2
:1000000020080020ED010008A1460008853F0008F7
:100010009D4600086D0900089D560008000000007C
:100020000000000000000000000000008D490008F2
:10003000150A00080000000031470008014D0008C3
:10004000070200080702000807020008070200086C
:10005000070200080702000807020008070200085C
:10006000070200080702000807020008070200084C
:10007000070200080702000807020008070200083C
:10008000070200080000000007020008070200083D
:10009000070200080702000807020008070200081C
:1000A00007020008314D0008254D0008194D0008D1
:1000B00007020008070200080702000807020008FC
:1000C00007020008070200080702000807020008EC
:1000D00007020008070200080702000807020008DC
:1000E00007020008070200080702000807020008CC
:1000F00007020008070200080702000800000000CD
:1001000000000000070200080000000007020008CD
:1001100007020008000000000702000807020008AC
:10012000070200080702000807020008070200088B
:10013000070200080000000000000000070200089D
:10014000070200080702000800000000000000008D
:10015000000000000000000000000000000000009F
:10016000000000000000000000000000070200087E
:10017000070200080000000000000000000000006E
:10018000000000000702000800000000000000005E
:10019000000000000000000000000000000000005F
:1001A000000000000000000007020008070200082D
:1001B000070200080702000807020008000000000C
:1001C000000000000702000800000000000000001E
:1001D0000702000807020008DFF80CD000F038FB27
:1001E0000048004751570008200800200648804773
:1001F00006480047FEE7FEE7FEE7FEE7FEE7FEE70C
:10020000FEE7FEE7FEE7FEE7054D0008D90100081E
:100210002DE9F05F0546002092469B46884606463B
:10022000814640241BE0284641464746224600F0CE
:1002300048F953465A46C01A914110D31146184600
:10024000224600F02FF92D1A67EB01084F4622468F
:100250000120002100F026F917EB00094E41201E75
:10026000A4F10104DFDC484631462A464346BDE896
:10027000F09FD2B201E000F8012B491EFBD270477B
:100280000022F6E710B513460A4604461946FFF762
:10029000F0FF204610BD2DE9FE4F804681EA0300A5
:1002A000C00F0C46009021F0004123F00045B8EB50
:1002B0000200A94105D24046214690461C460B4605
:1002C000024623F00040104347D0270DC7F30A0031
:1002D000C3F30A510290401A019040286BDAC3F32D
:1002E000130040F4801B0098924620B10023D2EB0B
:1002F000030A63EB0B0B01985946C0F140025046CC
:1003000000F0D0F806460D4650465946019A00F0D6
:10031000E8F810EB08006141002487EA115284EAF2
:10032000E7731A4340D0009A62B3019A012A4FEA58
:10033000075215DC001B61EB02014FF0004202EA9C
:100340000752CDE90042001C41F5801132462B4690
:1003500000F01FF903B0BDE8F08F40462146F9E7F1
:10036000001B61EB0201001C41F5801300185B418A
:100370002018A2F5001747EB030140EAD570B61923
:100380006D4111E06D084FEA360645EAC0754FEA47
:100390000752001B61EB0201001C41F58011490866
:1003A0004FEA30000019514132462B4603B0BDE8F8
:1003B000F04F00F0DFB80098012240000023D0EB9E
:1003C000020263EBE073009821464FEAE074B8EB59
:1003D000000061EB0401E9E783F000435BE781F093
:1003E000004158E730B5041E71F1000404DB4FF002
:1003F0000044404264EB0101141E73F1000405DB6C
:100400001C464FF00043524263EB0403101A8B4129
:1004100001D3012030BD002030BD00F0004230F09B
:1004200000400AD0C10D01F56071C0F3160042EA28
:100430000151C20840071143704700200146704730
:1004400001F0004330B421F0004150EA010206D02F
:100450000A0DA2F56072C1F31301002A02DC30BC60
:1004600000207047440F44EAC104C100E01830BCCA
:1004700000EBC25000F047B830B50B4601460020F3
:100480002022012409E021FA02F59D4205D303FA56
:1004900002F5491B04FA02F52844151EA2F10102D7
:1004A000F1DC30BD202A04DB203A00FA02F1002002
:1004B00070479140C2F1200320FA03F319439040A2
:1004C0007047202A04DB203A21FA02F0002170470D
:1004D00021FA02F3D040C2F12002914008431946AC
:1004E0007047202A06DBCB17203A41FA02F043EA94
:1004F000E07306E041FA02F3D040C2F120029140DD
:100500000843194670470029A8BF7047401C49009E
:1005100008BF20F00100704710B4B0FA80FC00FA68
:100520000CF050EA010404BF10BC704749B1CCF193
:10053000200421FA04F411FA0CF118BF012121431F
:100540000843A3EB0C01CB1D4FEA00614FEA1020DA
:1005500042BF002010BC704700EBC350104400297C
:10056000A4BF10BC7047401C490008BF20F0010028
:1005700010BC704710B5141E73F1000408DA401C5B
:1005800041F1000192185B411A4301D120F00100B2
:1005900010BD2DE9F04D92469B4611B1B1FA81F2A2
:1005A00002E0B0FA80F220329046FFF77BFF04466B
:1005B0000F4640EA0A0041EA0B0153465A460843F7
:1005C00013D0114653EA010019D0C8F14002504639
:1005D000FFF777FF05460E46504659464246FFF75D
:1005E00061FF084305D0012004E020463946BDE8FC
:1005F000F08D0020054346EAE0762C4337430A9805
:100600006305E40AA0EB08000022FD0A44EA47540F
:100610000A3002D500200146E9E7010510196941B9
:10062000DDE9084500196941BDE8F04DA2E72DE973
:10063000FE4F81EA030404F0004421F000410094DD
:100640004FF0000B23F0004350EA01045ED052EA61
:1006500003045BD0C3F30A54C1F30A552C44A4F23B
:10066000F3340194A0FB0254C1F3130141F480114F
:10067000C3F3130343F4801301FB024400FB034E56
:10068000840A970A44EA815447EA8357A4FB07681F
:1006900002958D0A05FB07854FEA932C04FB0C5449
:1006A0002705029D4FEA065847EA1637B5EB0805BD
:1006B0006EEB070C870E920E47EA811742EA83120F
:1006C000A7FB0201B6EB0B0164EB00042B0D43EA20
:1006D0000C335E1844EB1C50DA465146E7FB02012E
:1006E000C5F313044FEA0B3343EA14534FEA0432C1
:1006F000019C43EA0603A4F10C040294009CCDE99A
:1007000000B4FFF746FF03B0BDE8F08F00200146BC
:10071000F9E72DE9F04D81EA030404F0004B21F0E4
:10072000004514464FF0000A23F0004150EA05024C
:1007300020D054EA01021DD0C5F30A570246C5F382
:100740001303C1F31300C1F30A5640F4801543F4B8
:100750008013A7EB0608101BD64608F2FD3873EB92
:10076000050002D308F1010801E092185B41B8F1DD
:10077000000F03DA00200146BDE8F08D00204FF4A1
:100780008011064684460EE0171B73EB050705D360
:10079000121B63EB050306434CEA010C49084FEAC0
:1007A000300092185B4150EA0107EDD152EA030094
:1007B00012D082EA040083EA0501084305D0101B29
:1007C000AB4106D20122002306E000224FF0004395
:1007D00002E06FF0010253101AEB06004CEB0851D7
:1007E00010EB0A0041EB0B01BDE8F04DFFF7C2BE74
:1007F000C1F30A52C1F3130140F2FF3341F48011F7
:100800009A4202DA00200146704740F233439A428E
:10081000A2F2334202DC5242FFF753BEFFF742BE60
:1008200030B5041E71F1000404DB4FF00044404277
:1008300064EB0101141E73F1000405DB1C464FF04C
:100840000043524263EB0403994208BF904230BD1B
:10085000064C074D06E0E06840F0010394E807000D
:1008600098471034AC42F6D3FFF7BAFC1062000888
:100870003062000870B582B0044600200190216803
:100880008A68D20711D14FF6C076C7F6FF7688681E
:1008900006F17F0210420BD0E06D40F01000E065E1
:1008A000206E40F001002066012002B070BD00BF44
:1008B0008868304040F00100886040F20830C5F29E
:1008C00000000068000221D400F008FE21680A68D8
:1008D000D20717D1054602E00868C00712D1886820
:1008E000C00704D18868304040F00100886000F003
:1008F000F5FD401B21680328EED30868C007EBD143
:10090000CAE700BF002002B070BD00BF40F2100077
:10091000C2F20000006842F663518009C0F23E5105
:10092000A0FB0101880900EB40000C2101EB8000D5
:10093000019001980028C7D00198013801900198D2
:100940000028C1D001980138019001980028BBD03F
:1009500001980138019001980028B5D0019801381C
:10096000019001980028E7D1AEE70000FEE7000003
:1009700040F60841C4F202010A689FED191A22F0FC
:10098000004300EE103AB8EEC00A02EE102A0260F0
:1009900030EE010AB8EEC22A0968B2F1FF3FC8BFC3
:1009A000B0EE420A9FED0F2A21F0004220EE020A2B
:1009B00080ED020A00EE102AB8EEC00A30EE010AFD
:1009C00001EE101A4160B1F1FF3FB8EEC11AC8BF85
:1009D000B0EE410A20EE020A80ED030A704700BF24
:1009E000000000CF000000309FED081A40F60440E0
:1009F00080EE010A9FED061AC4F2020020EE010A01
:100A0000BDEEC00A80ED000A704700BFDB0F494011
:100A10000000004F70470000EFF3108072B600BF77
:100A2000FEE7000070B582B090F85820012A03D18B
:100A30000221084602B070BD0022019200920268B5
:100A4000B2F1A04F30D140F208324FF6006C4FF6B1
:100A50000055C5F20002CFF6FF7CCFF6FF7552F8C5
:100A60000C40535923435B071ED4D1F800E01368B0
:100A7000BEF1000F23F4604422D04B6890F8386038
:100A8000234343EA46331360535952F80C6033430F
:100A9000DB0723D11368896840F61F76B34341EA28
:100AA0000E01194317E000BFC16D41F02001C1657F
:100AB0000121002280F85820084602B070BD00BF16
:100AC0001460515952F80C301943C90708D1116804
:100AD00040F61F73994311600021EAE70021E8E71F
:100AE0000021E6E7F0B581B00022009290F858208E
:100AF000012A03D10221084601B0F0BD0123076895
:100B000080F85830BB685B0736D4D1E900531F2604
:100B1000C3F3012407EB8404226B03F01F039E4000
:100B2000B243C5F3846606FA03F31A432263BA6834
:100B3000BB6802F0040203F00803D21840F0BD8045
:100B40000A6807F114030426C2F34064D1F808E0F0
:100B500006EAD25C53F82450C2F304540722A240A0
:100B6000BEF1004F25EA02050CD143F80C501A687B
:100B700042F000430EE000BFC16D41F02001C165AD
:100B8000012182E10EFA04F22A4343F80C201A688C
:100B900022F000437B61D1E90434FD68042B5FD16E
:100BA0003A6E3A6E0B68C2F3846293FAA3F6C3F30B
:100BB000846C6FF3DF43B6FA86F5002B2C464FF6B4
:100BC000FF7E08BF6446A242C0F2070E0CD13A6E07
:100BD00022F000423A660A6802EA0E03C2F3846C0D
:100BE00092FAA2F2B2FA82F57A6E7A6E002BC2F312
:100BF00084622C4608BF6446A2420CD17A6E22F071
:100C000000427A660A6802EA0E03C2F3846C92FA22
:100C1000A2F2B2FA82F5BA6EBA6E002BC2F3846207
:100C20002C4608BF6446A2420CD1BA6E22F00042A4
:100C3000BA660A6802EA0E03C2F3846C92FAA2F260
:100C4000B2FA82F5FA6EFA6E002BC2F3846208BF24
:100C50006546AA4231D1FA6E22F00042FA662CE0D3
:100C6000062202EA95020E6807F1600504FA02FC0A
:100C700055F823404FF20002C0F2FF3206F0F8466A
:100C8000224046EA0C06324342F0004245F8232057
:100C90000A698B6955F8226026F08076334345F85F
:100CA00022300A690B7F55F82260012B26F000766E
:100CB00008BF06F1007645F82260BA68D20750D125
:100CC0000C68CA68D7F8B06023466FF3DF4326EAA2
:100CD000030C4FF6FF7602F01805C0F20706EE404F
:100CE00000252640C4F27F0546EA0C06AA42C7F852
:100CF000B06036D193B194FAA4F2B2FA82F2013222
:100D000002F01E03092B02F01F0310D801229A40A3
:100D100003EB430342EA035315E000BF012202EB59
:100D2000946202F01E030A2B02F01F03EED301228D
:100D300000269A4003EB4303CFF6206606EB0353ED
:100D40001A4342F00073C3F3406607EB86068A68D5
:100D50007569C3F3045307249C40A5439A402A4372
:100D6000726109680022C8F20802114254D040F2B0
:100D7000083CC5F2000CDCF800300022CCF2213235
:100D8000914203F0E07404D01022C9F2C0029142F3
:100D900044D119024FF0000177D4B7F1A04F74D1BC
:100DA000DCF8001042F6635221F0E071214341F477
:100DB0000001CCF8001040F21001C2F200010968F5
:100DC000C0F23E528909A1FB0212910901EB4101D7
:100DD0000C2202EB81010091009900293CD000BF58
:100DE0000099013900910099002947D000990139F3
:100DF00000910099002943D0009901390091009990
:100E000000293FD0009901390091009900294FF045
:100E10000001E5D139E000BF002136E00022CCF22C
:100E20005272914208BF13F0807217D00022CCF6A4
:100E3000843291424FF0000108BF13F4800224D1A4
:100E4000ACF50272974220D0DCF8001021F0E0717E
:100E5000214341F480010CE0002116E0ACF5027161
:100E60008F4211D0DCF8001021F0E071214341F0F5
:100E70008071CCF80010002107E000BF002104E0E1
:100E8000002102E0002100E00021002280F858202B
:100E9000084601B0F0BD0000C06D70470068006CEE
:100EA00070470000B0B582B00446002001904CB1FC
:100EB000E06D58B121688868800012D48868C0004D
:100EC00019D54CE0012002B0B0BD00BF204600F0B3
:100ED00009F90020206684F858002168886880009D
:100EE000ECD588684FF6C072C5F6FF721040886076
:100EF0008868C00033D44FF6C0728868C5F6FF72A8
:100F000002F18052104000F18050886040F21000E1
:100F1000C2F20000006842F663528009C0F23E52FD
:100F2000A0FB02029009022202EB4000019001980E
:100F3000A8B100BF019801380190019878B10198DB
:100F400001380190019850B1019801380190019841
:100F500028B101980138019001980028EAD18868E9
:100F6000C00009D4E06D40F01000E065206E40F054
:100F700001002066012000E000208A68E36D02F095
:100F8000040203F01003D218E26D71D122F48172D1
:100F90000232E2658A68D2071AD140F2083C4FF665
:100FA00000534FF60062C5F2000CCFF6FF73CFF688
:100FB000FF725CF803305CF802201A43D20707D1B5
:100FC0006268DCF8003023F47C131A43CCF800206C
:100FD000627FE36B43EA4232D4E902C31A4394F8D6
:100FE000243042EA0C02012B42EA034207D1D4F832
:100FF00028C00023CFF6FE7303EB4C431A43E36A89
:1010000033B103F47873D4F830C01A4342EA0C02C7
:10101000D1F80CC044F20703CFF6F07303EA0C03D7
:101020001A43CA600A69636B22F040621A430A617C
:101030008A68120745D494F83820237F520042EA88
:10104000833CCB6844F2020223EA020242EA0C0229
:10105000CA6022690B698AB143F480330B61D1F80D
:10106000C0C043F6FF732CEA03031A430EE000BF2F
:1010700042F010010120E16502B0B0BD23F48032DE
:101080000A61D1F8C02043F6FF739A43C1F8C0202B
:1010900094F840300A69012B10D140F2FD7322EA26
:1010A000030CD4E91132D4E913E543EA0C031A43E3
:1010B00042EA0E022A4342F0010201E022F001025C
:1010C0000A6162690B6B012A23F00F0202D1236AC5
:1010D000013B1A430A63E16D012262F30101E165FC
:1010E00002B0B0BD10B598B0044600201790CDE90D
:1010F0001500CDE9130002A84421FFF7C1F82068CC
:1011000040F20011C5F2000188422FD0B0F1A04F8B
:1011100062D14FF4004002904FF00050119002A8AD
:1011200000F02AFB002818BFFFF776FC40F21801F8
:10113000C2F200010A6841F24C00C4F20200531CE2
:101140000B6042B9016841F400510160016801F48B
:10115000005101910199016841F0010101600068AD
:1011600000F001000190019801202BE04FF40040B5
:1011700002904FF00050119002A800F0FDFA0028F4
:1011800018BFFFF749FC40F21801C2F200010A68DB
:1011900041F24C00C4F20200531C0B6042B90168DA
:1011A00041F400510160016801F40051019101997D
:1011B000016841F001010160006800F00100019048
:1011C000019840201390032014900020159013A93B
:1011D0004FF0904000F086F818B010BD70B540F2A6
:1011E0000015C5F200050446D5F80862006880685D
:1011F000400703D494F85800012801D1022070BDA3
:10120000012084F858002046FFF734FB20B100216C
:1012100084F8581070BD00BF2068E16D40F601737E
:10122000994301F58073A842014606F01F0208BFEA
:101230004FF0A0418142E36518BF002A03D1E36D5E
:1012400023F48013E365E66D0023F6044FF00006F7
:1012500044BF266E26F0060626661C2681420660DE
:1012600084F8583008D0092A18D8012303FA02F26A
:1012700040F221231A4211D0C168890104D5E16DE1
:10128000012262F30D31E16581684FF6C072C7F645
:10129000FF72114004318160002070BDE06D40F4A8
:1012A0008010E065C86880015CBF002070BDE06D03
:1012B000012161F30D30E065002070BDB0B504463A
:1012C00000F00CF9054640F20400C2F2000040684C
:1012D000611C18BF044400BF00F000F9401BA0428D
:1012E000FAD3B0BD2DE9F04F84B08E4641F20042F2
:1012F000C4F60002DEF8004006219042019008BFCB
:101300000521002C009100F0D7800198002500F104
:1013100038424FEAB2230098012700264FF0000818
:10132000052B38BF18460090CDF808E00EE000BF4E
:10133000DEF8004008F1010834FA07F106F1020670
:1013400007F1010705F1040500F0B680A7F1010AD5
:10135000012000FA0AF314EA0309E9D0DEF804C018
:101360000CF0030BABF10104012C17D80198744663
:1013700081680322E468B2409143B4402143816014
:1013800041684FEA480E9943CCF3001303FA0AF37D
:101390000446D043194361600CE000BF0321B14013
:1013A000019CC843BBF1030FB64603D1B6464FF0CC
:1013B000030B23E0E168029A01409368BBF1020F3E
:1013C00003FA0EF341EA0301E16017D16FF0030164
:1013D00001EA5A01214405F01C040F23D1F820C072
:1013E00003FA04FB13692CEA0B0CA34043EA0C0339
:1013F000019C0B62D2F804C00CF0030B21680BFABD
:101400000EF2014011432160DDF808E01CF4403F7A
:101410008ED041F26000C4F20200016840F2004C3C
:1014200041F0010101600168C4F2010C01F0010109
:10143000039103992AF003014FF6084A6144CFF65D
:10144000FF7A05F00C030F2051F80A2000FA03F48C
:101450000098A24300FA03F31A4341F80A20DCF88B
:101460000810DEF8042041EA090340F20C40D402DF
:1014700058BF21EA0903CCF80830C4F20100016822
:10148000940241EA090358BF21EA09030360DCF82A
:101490000410940341EA090358BF21EA0903CCF878
:1014A0000430DCF80010D20341EA090358BF21EAF6
:1014B0000903CCF800303BE704B0BDE8F08F000032
:1014C000426902EA0103914341EA034181617047A5
:1014D0001823002A08BF2823C150704740F21C403F
:1014E000C2F200000068704740F2040040F21C4164
:1014F000C2F20000C2F2000140680A6810440860AD
:101500007047000080B5032000F088F80F2000F03D
:1015100009F800281CBF012080BD00F029F8002038
:1015200080BD000070B540F20406C2F2000671688A
:10153000E1B1044640F21000C2F200004FF47A72AA
:101540000068B2FBF1F1B0FBF1F001F0C3F80F2C31
:101550004FF0010508D838B94FF0FF30214600227E
:10156000002500F02FF83460284670BD012070BDC2
:1015700082B041F25800C4F20200816841F00101DA
:101580008160816801F0010101910199016841F0D8
:1015900080510160006800F080500090009802B017
:1015A00000F0E0B8002848BF704700F01F0101229A
:1015B00002FA01F14EF200124009CEF2000242F8A6
:1015C0002010704710B54EF60C5CCEF2000CDCF823
:1015D0000030C3F3022E8EF00704042C28BF04242D
:1015E000BEF103034FF0FF3E0EFA04F438BF0023B0
:1015F000A14399400EFA03F39A43114300F00F02FE
:10160000043A624409010C3200F16043B0F1FF3F3B
:10161000C8BF03F56442117010BD00004EF60C51B6
:10162000CEF200010A684FF6FF031A4060F30A2267
:1016300042F0806040F0FD7008607047B0F5007FB8
:1016400042D0002840F0808047F21400C4F200002D
:1016500050F8141CC26E01F4C06122F48072B1F51E
:10166000806FC2662ED150F8141C012262F34A2109
:1016700040F8141C40F21001C2F200010968322245
:1016800051434DF68362C4F21B32A1FB0212910C4E
:101690000268520511D54A1C0FD0026852050CD5BC
:1016A00059B10268520508D5012906D002685205D1
:1016B00003D50229A1F10401EAD10068400544BF25
:1016C000032070470020704747F21400C4F2000066
:1016D00050F8141CC26E01F4C06142F48072B1F57E
:1016E000806FC266EED150F8141C012262F34A21C9
:1016F00040F8141C40F21001C2F2000109683222C5
:1017000051434DF68362C4F21B32A1FB0212910CCD
:101710000268520511D54A1C0FD0026852050CD53B
:1017200059B10268520508D5012906D00268520550
:1017300003D50229A1F10401EAD10068400544BFA4
:1017400003207047BEE700BF47F21400C4F2000058
:1017500050F8141C022262F34A2140F8141C0020A5
:101760007047000047F20800C4F20000016841F42D
:1017700080410160704700002DE9F04182B00446CD
:10178000807841F288060007C4F2020602D40020E5
:101790002FE000BF56F8300C10F080580BD156F8EF
:1017A000300C40F0805046F8300C56F8300C00F009
:1017B00080500190019847F20007C4F20007386892
:1017C00040F480703860FFF789FE05463868C00530
:1017D00000F1D680FFF782FE401B0228F6D90320D5
:1017E000B8F1000F05D156F8301C21F0805146F8B1
:1017F000301C2168CA0713D18A0719D44A071FD49D
:101800000A0725D48A062BD44A0631D40A0637D4CF
:10181000CA053DD48A0543D44A0549D457E000BFE0
:101820003268636822F003021A4332608A07E5D502
:101830003268A36822F00C021A4332604A07DFD5EF
:101840003268E36822F030021A4332600A07D9D5C1
:101850003268236922F0C0021A4332608A06D3D567
:101860003268636922F440621A4332604A06CDD579
:101870003268A36922F440521A4332600A06C7D57F
:101880003268E36922F440421A433260CA05C1D586
:101890003268236A22F440321A4332608A05BBD58B
:1018A0003268636A22F440221A4332604A050ED538
:1018B0003268A36A22F440121A43B3F5801F3260E3
:1018C00005D156F87C2C42F4801246F87C2C0A058F
:1018D0000ED53268E36A22F440021A43B3F5800F52
:1018E000326005D156F87C2C42F4801246F87C2CEC
:1018F000CA040ED53268236B22F040721A43B3F14A
:10190000807F326005D156F87C2C42F4801246F874
:101910007C2C8A040ED53268636B22F040621A4335
:10192000B3F1006F326005D156F87C2C42F480127E
:1019300046F87C2C4A040ED53268A36B22F0406234
:101940001A43B3F1006F326005D156F87C2C42F493
:10195000801246F87C2C09040ED53168E26B21F028
:1019600040511143B2F1805F316005D156F87C1CC3
:1019700041F4803146F87C1C02B0BDE8F08100BF24
:10198000B06810F4407010D0216C88420BD0B06861
:10199000B16820F4407041F48031B160B16821F445
:1019A0008031B160B060C0070CD1B068216C20F408
:1019B00040700843B0600020B8F1000F7FF419AF09
:1019C00011E700BFFFF78AFD054641F2883700BFE7
:1019D000B0688007E9D4FFF781FD401BB842F7D912
:1019E000FDE600002DE9F04700286DD042F2000A24
:1019F000C4F2020A0446DAF800000D4600F00F00B7
:101A000088420CD2DAF8000020F00F002843CAF810
:101A10000000DAF8000000F00F00A84254D121685D
:101A200041F20808C807C4F2020803D1880740F150
:101A3000D880BDE0606802283AD0032840D158F829
:101A4000082C920140D5D8F80420D8F8043042F28E
:101A5000004702F00302C3F30313C0F2F40701339B
:101A6000032A04BF41F20027C0F27A07D8F8042005
:101A7000B7FBF3F3D8F80470C2F306225A43C7F356
:101A80004163022707EB4303B2FBF3F24BF200433F
:101A9000C0F2C4439A4261D9D8F8002012F0F00F86
:101AA00051D089075AD5A168002957D14BE000BF12
:101AB00058F8081C89035CBF0120BDE8F08707E0E7
:101AC00058F8081C490503D40120BDE8F08700BF81
:101AD000D8F8001001F00C0104293FD0D8F800100C
:101AE00001F00C01082939D0D8F8001001F00C01E0
:101AF0000C2933D1D8F80410D8F8042042F200435E
:101B000001F00301C2F30312C0F2F403013203290E
:101B100004BF41F20023C0F27A03D8F80410B3FBEB
:101B2000F2F2D8F80430C1F306215143C3F3416205
:101B3000022303EB4202B1FBF2F14BF20042C0F28E
:101B4000C44291420AD9D8F80010082262F3071162
:101B50004FF00109C8F8001002E000BF4FF0000983
:101B6000D8F8001021F003010843C8F80000FFF77F
:101B7000B5FC064641F28837D8F80000616800F0ED
:101B80000C00B0EB810F07D0FFF7A8FC801BB84218
:101B9000F2D90320BDE8F0872168880708D4B9F19D
:101BA000000F1ED0D8F8000020F0F00017E000BFB2
:101BB000480705D5D8F8000040F4E060C8F80000F8
:101BC000080706D5D8F80000072262F30D20C8F8F0
:101BD0000000D8F80000A26820F0F0001043C8F818
:101BE0000000DAF8000000F00F00A8421BD9DAF874
:101BF000000020F00F002843CAF80000FFF76EFC39
:101C0000064641F2883700BFDAF8000000F00F0006
:101C1000A84207D0FFF762FC801BB842F4D903202A
:101C2000BDE8F0872168480707D5D8F80000E268CA
:101C300020F4E0601043C8F80000080708D5D8F881
:101C40000000216920F4605040EAC100C8F800009B
:101C5000D8F8000042F20041C0F2F40100F00C009C
:101C6000042808462DD0D8F8000000F00C00082801
:101C700041F20020C0F27A0023D0D8F8002002F010
:101C80000C020C2A1CD1D8F80420D8F8043002F039
:101C90000302C3F303130133032A08BF0146D8F834
:101CA0000400B1FBF3F1D8F80420C0F30620484348
:101CB000C2F34161022202EB4101B0FBF1F000E00E
:101CC0000020D8F8001046F29E12C1F30311C0F6AE
:101CD0000002515C40F2100201F01F0120FA01F1F4
:101CE00040F20400C2F200000068C2F2000211607B
:101CF000BDE8F047FFF716BC40F2100041F20801C2
:101D0000C2F20000C4F202010068096846F2AE1295
:101D1000C1F30221C0F60002515C01F01F01C8406E
:101D20007047000040F2100041F20801C2F20000CA
:101D3000C4F202010068096846F2AE12C1F3C22182
:101D4000C0F60002515C01F01F01C840704700005E
:101D500041F20C01C4F2020151F8040C42F20042BB
:101D6000C0F2F40200F00C000428104608BF7047CF
:101D700051F8040C00F00C00082841F20020C0F2D9
:101D80007A0021D051F8043C03F00C030C2B1CBF4B
:101D900000207047D1F800C00B680CF0030CC3F3AF
:101DA00003130133BCF1030F08BF02460868B2FBFE
:101DB000F3F20968C0F306205043C1F341610222E7
:101DC00002EB4101B0FBF1F0704700002DE9F0415A
:101DD00082B0002800F006810446007841F2000637
:101DE000C007C4F2020655D12078800774D4207849
:101DF000000700F197802078400700F1B780207835
:101E0000800600F10781E569002D00F03082B0689E
:101E100000F00C000C2840F05981012D00F0E28008
:101E2000F068216A00F003028A4240F0DB80626AB7
:101E30006FF00F0300F0F00103EB0212914240F04B
:101E4000D180A16A00F4FE42B2EB012F40F0CA80BB
:101E5000E16A00F07842B2EBC16F40F0C380226BC0
:101E60000023CFF6E07303EB025200F4C0016FF3DE
:101E70001402914240F0B680616B4FF07E4202EB5B
:101E8000016100F0C06001F07E41884240F0AA800C
:101E9000EDE100BFB06800F00C01F06808295BD0EC
:101EA000032281F00C0122EA00000844B0FA80F01D
:101EB000400951D16068B0F5803F07D0B0F5A02F40
:101EC00040F0DA80306840F480203060306840F4C0
:101ED00080303060DBE000BFB068F16800F00C00DB
:101EE000042869D001F0030180F00C0081F00201A8
:101EF0000844B0FA80F040095ED1E16830680029FA
:101F000000F0D28040F480703060FFF7E7FA0546B9
:101F10003068400500F1FC80FFF7E0FA401B022822
:101F2000F6D92EE16169D6F89400002900F090807E
:101F300040F00100C6F89400FFF7D0FA054600BF54
:101F4000D6F8940080073FF556AFFFF7C7FA401B5D
:101F50000228F5D915E100BF306880037FF544AF52
:101F6000606800287FF440AF3CE000BFB06D10F027
:101F7000805808D1B06D40F08050B065B06D00F071
:101F800080500190019847F20007C4F200073868BA
:101F9000C0052BD4386840F480703860FFF79EFA93
:101FA000054600BF3868C00520D4FFF797FA401BEC
:101FB0000228F7D9E5E000BF3068400501D5E068A8
:101FC00080B17068216920F0FE4040EA01607060D5
:101FD00040F20400C2F200000068FFF7A3FA0028F4
:101FE0003FF405AF012002B0BDE8F081A0680128F0
:101FF00008D0052840F0AA80D6F8900040F00400F0
:10200000C6F89000D6F8900040F00100C6F89000A5
:10201000A9E000BFA169D6F89800002900F08080EF
:1020200040F00100C6F89800FFF758FA054600BFD7
:10203000D6F8980080073FF5E6AEFFF74FFA401B51
:1020400002284FF00300F3D902B0BDE8F08100BFD1
:1020500020F00100C6F89400FFF740FA054600BFE3
:10206000D6F8940080077FF5C6AEFFF737FA401B1D
:102070000228F5D985E000BF3168002821F48031BD
:102080003160316821F48021316000F07F80FFF7FA
:1020900025FA0546306880033FF5A6AEFFF71EFA25
:1020A000401B6428F6D96CE020F480703060FFF7A4
:1020B00015FA0546306840057FF599AEFFF70EFA30
:1020C000401B02284FF00300F4D9BDE7306820F030
:1020D00080703060FFF702FA022D05460CD100BF78
:1020E0003068800140F17E80FFF7F8F9401B02283C
:1020F0004FF00300F4D9A7E73068800140F1B080C9
:10210000FFF7ECF9401B02284FF00300F4D99BE7DE
:102110007068216920F0FE4040EA0160706066E668
:1021200020F00100C6F89800FFF7D8F9054600BF77
:10213000D6F8980080077FF566AEFFF7CFF9401B11
:1021400002284FF00300F3D97EE700BFD6F89010C5
:1021500021F00101C6F89010D6F8901021F004018A
:10216000C6F8901010B3FFF7B9F9054641F2883769
:10217000D6F8900080072BD4FFF7B0F9401BB84287
:10218000F6D9032002B0BDE8F08100BFFFF7A6F941
:10219000054600BF306880037FF526AEFFF79EF945
:1021A000401B64284FF00300F4D94DE7FFF796F980
:1021B000054641F2883700BFD6F89000800707D562
:1021C000FFF78CF9401BB8424FF00300F4D93BE70E
:1021D000B8F1000F7FF413AEB06D20F08050B06501
:1021E0000DE600BFF06848F20C01C0F29F1104F147
:1021F000200700EA010C8ECF6FF00F00D4E90C54D9
:1022000000EB02100022CFF6E07241EA0C0102EB73
:10221000055208436FF314024FF07E4540EA032055
:1022200005EB0465104305F07E4540EAC76028438E
:10223000F060306840F080703060F06840F080708E
:10224000F060FFF74BF90446306880010FD4FFF7C8
:1022500045F9001B02284FF00300F5D9F4E600BF52
:10226000F0684FF6FC71CFF6EE610840F060002098
:1022700002B0BDE8F0810000002804BF01207047D3
:10228000B0B50446406A28B10020206104F1140072
:1022900006E000BF6068B0F5827F03D004F11C0047
:1022A000002101600025A56294F85D0020B9204658
:1022B00084F85C5000F052F8022084F85D00206839
:1022C000D4F80CE00268BEF5E06F22F04002026034
:1022D0004EF4006298BF0125B2F5706F1CBF002359
:1022E000A3624FEA053CD4E90135D4E9042103F4A3
:1022F000827305F404452B4402F002021A44A369D8
:1023000001F00101E569114403F40072114405F084
:102310003802256A114405F08002A56A114405F4CB
:102320000052114301600421626A0EF4706501EAF3
:102330001341636B45EA0C0502F01002294303F0D8
:102340000803114319434160C16921F40061C1616F
:1023500000200121206684F85D10B0BD80B586B0F4
:10236000006843F60001C4F20001884202D006B0C2
:1023700080BD00BF41F24C00C4F20200C16841F4CC
:102380008041C160C16801F48041019101990168F7
:1023900041F002010160006801A900F00200019013
:1023A00001984FF460400190022002900020CDE996
:1023B00003000520059040F20040C4F60000FEF73F
:1023C00091FF06B080BD00002DE9F04381B00446C6
:1023D00090F85C00012803D1022001B0BDE8F08331
:1023E00001201E4615460F4684F85C00FFF776F87C
:1023F00094F85D10814601290CD1002F4FF00100A7
:1024000018BF002D14D1002184F85C1001B0BDE884
:10241000F08300BF6068B0F5827F40F0B180A068B3
:1024200000284FF0020008BF0429ECD1E5E700BF07
:10243000002EE8D094F85D0004281CBF052084F825
:102440005D00002020662564A4F84660A4F844607E
:10245000A763E687C4E913002068A687E16842689D
:10246000B1F5E06F22F48052134698BF03F5805314
:10247000012E88BF134643600268520603D40268E7
:1024800042F0400202606268731EB2FA82F2B3FA4E
:1024900083F3DDF8208052095B09B1F5E06F43EA70
:1024A000020175D931B137F8021BC160A763E08F13
:1024B0000138E087012518F1010036D102E000BFA4
:1024C000FFF70CF8E08F20B9B4F84600002800F0C0
:1024D000CD802068816889070CD5E18F51B1012D2D
:1024E00008D1A16B002531F8022BC260A163E18FF6
:1024F0000139E1878168C907E2D0B4F846100029A4
:10250000DED0C068216C012521F8020B2164B4F8EB
:1025100046000138A4F84600D2E700BFFEF7DEFF10
:10252000A0EB0900404580F09F80E08F20B9B4F80F
:102530004600002800F09A802068816889070CD541
:10254000E18F51B1012D08D1A16B002531F8022B8B
:10255000C260A163E18F0139E1878168C907DDD0DD
:10256000B4F846100029D9D0C068216C012521F8A3
:10257000020B2164B4F846000138A4F84600CDE708
:102580000220002184F85C1001B0BDE8F08300BF98
:1025900089B1E18F02294FF6FE7103D337F8022B80
:1025A000C26004E03A7801310273A06B471CA76354
:1025B000E08F0844E087012608F10105E08F18B993
:1025C000B4F84600002851D02068816889071AD5E0
:1025D000E18FC1B1012E16D1E18F022908D3A16B81
:1025E00031F8022BC260A163E18F023909E000BF1C
:1025F000A16B09780173A16B20680131A163E18FA0
:1026000001390026E1878168C90725D0B4F8461052
:1026100011B3B4F84610022912D3C168226C22F813
:10262000021B2264B4F846100239A4F84610B4F82C
:10263000461001290FD8416841F4805141600AE0F9
:10264000007B216C0870206C01302064B4F84600D7
:102650000138A4F846000126FEF740FF002DADD05A
:10266000A0EB09004045A9D3032029E020464FF400
:10267000C05142464B4602F05DF868B920464146DB
:102680004A4602F01BF938B920464FF4C061424671
:102690004B4602F04FF878B1206E40F020002066E3
:1026A000202020660120216E51B10120002184F8F4
:1026B0005C1001B0BDE8F0830020216E0029F4D148
:1026C000012184F85D10002184F85C1001B0BDE8A0
:1026D000F0830000411E0020B0EB116F1CBF0120F1
:1026E00070474EF21002CEF2000251604EF62351B6
:1026F000CEF20001F0230B7007219060116070474B
:10270000704700007047000070470000B0B590F8B7
:102710003C20012A04BF0220B0BDD1E90232D1E938
:1027200000CE22F47C5223F4705343EA020448F2B0
:10273000FF73CEF6F0730EEA0302224303F5006442
:1027400004EA0C0442EA040C0C6903F5C05222406E
:102750004C6942EA0C02224303F5605422400C6BA0
:1027600003F5F04323401A438B6940F2000CCC6917
:10277000CEF6FF7C0CEA03431443D0F800C043F2CA
:102780000042C4F20102944543EA040305D042F634
:102790000042C4F20102944516D14FF6FF72CDF605
:1027A0000F421A40D1E9083ED1E90A410025CDF691
:1027B000F04505EA0454224323F008531A432EF04F
:1027C00000531A4342EA01030021CCF8443080F858
:1027D0003C100846B0BD0000704700007047000084
:1027E0007047000070B590F83C20012A4FF00202BB
:1027F00047D080F83D20026843F2004C546893684B
:10280000C4F2010C42F6004E6245C4F2010E01D042
:10281000724503D14D6824F470042C434FF68F7534
:10282000CFF6FF550E682C4042F6FF35C4F2010585
:102830003443AA4254600FDCB2F1804F16D040F20C
:102840000046C4F20006B24210D040F60006C4F2C0
:102850000006B2420AD00EE0724507D044F20006EC
:10286000C4F20106B24201D0624504D1896823F066
:102870008003194391600121002280F83D1080F807
:102880003C20104670BD000041B1082910D0042939
:1028900014BF00F1470200F145020BE090F844201C
:1028A000012A1CBF01207047022280F8442013E057
:1028B00000F146021278012A1CBF01207047022253
:1028C000082907D0042914BF80F8472080F8452044
:1028D00002E000BF80F84620026801F00F000421EA
:1028E000136A01FA00F023EA00011162116A084339
:1028F0001062506C42F6FF31C4F2010140F4004016
:102900008A42506410DCB2F1804F1FD040F2004088
:10291000C4F20000824219D040F60000C4F2000068
:10292000824213D01FE000BF42F60040C4F2010013
:1029300082420BD044F20000C4F20100824205D072
:1029400043F20040C4F2010082420CD1906807219A
:10295000C0F20101014006294FF0000008D0B1F596
:10296000803F08BF7047106840F0010010600020F1
:10297000704700007047000070470000F0B581B05C
:1029800004460068C5680669B10717D515F002014D
:1029900014D06FF002010161012121778069800765
:1029A00004D02046FFF7E8FF06E000BF204600F015
:1029B000BFFA204601F014F800202077700719D5DF
:1029C00015F0040016D020686FF0040101610221A7
:1029D0002177806910F4407F04D02046FFF7CCFFB8
:1029E00006E000BF204600F0A3FA204600F0F8FF02
:1029F00000202077300717D515F0080014D0206884
:102A00006FF00801016104212177C069800703D0BC
:102A10002046FFF7B1FF05E0204600F089FA204686
:102A200000F0DEFF00202077F00619D515F0100029
:102A300016D020686FF01001016108212177C0696C
:102A400010F4407F04D02046FFF796FF06E000BF59
:102A5000204600F06DFA204600F0C2FF00202077EB
:102A6000F00718BF15F0010006D020686FF00101D3
:102A70000161204601F07AF816F4025F05F0800744
:102A800018BF002F02D1F00509D410E020686FF4C0
:102A9000025101612046FFF735FEF00507D537B139
:102AA00020686FF4807101612046FFF729FE7006EF
:102AB00009D515F0400006D020686FF04001016193
:102AC000204601F083F8B00609D515F0200006D0A5
:102AD00020686FF0200101612046FFF715FEF0022B
:102AE00009D515F4801006D020686FF480110161BB
:102AF0002046FFF773FEB00209D515F4001006D08A
:102B000020686FF4001101612046FFF765FE700236
:102B100009D515F4800006D020686FF480010161AA
:102B20002046FFF75DFE30020CD515F4000009D0F9
:102B300021686FF4000220460A6101B0BDE8F04050
:102B4000FFF718BF01B0F0BD2DE9F04186B0006875
:102B500042F60041C4F20101884203D006B0BDE84C
:102B6000F08100BF41F24C00C4F20200016840F263
:102B7000004841F0040101600168C4F6000801F05A
:102B8000040101910199016801AD41F00201016068
:102B90000168022601F002010191019901680027F4
:102BA00041F0010101600068294600F00100019038
:102BB00001984FF4005001900420059008F58060C2
:102BC0000296CDE90377FEF78DFB032001A9C1C171
:102BD00006244046294604970594FEF783FB4FF4EC
:102BE000E06001A9C1C14FF090402946CDE90474CD
:102BF000FEF778FB06B0BDE8F0810000F0B590F874
:102C00003C30012B04BF0220F0BD4FEAB202052A7E
:102C100000F25081DFE812F0060046008E00D60078
:102C20001E0154010268146A136AA2F1804523F060
:102C3000010313625368D2F818E08E68A5F5963543
:102C4000D1F800C024F002044FEAB525072D44EA6C
:102C500006040AD80126AE4016F0E50F1FBFCE6865
:102C600024F00C0426F004063443072D0BD801266B
:102C700006FA05F515F0E50F1FBF23F44073D1E9FF
:102C800005562B4333434FF68C75CFF6FE750EEA8F
:102C9000050646EA0C065360966149685163146262
:102CA0003FE100BF026843F20045146A136AC4F2B0
:102CB000010523F0100313625368D2F818E0AA420A
:102CC0008D68D1F800C024F0200444EA051405D032
:102CD00042F60045C4F20105AA4207D1CD686FF063
:102CE000400624F0C00406EA05152C43A2F18045F5
:102CF000A5F596354FEAB525072D0DD8012606FA1C
:102D000005F515F0E50F1FBF23F44063D1E9055623
:102D100043EA850343EA860348F6FF45CFF6FF659D
:102D20000EEA050646EA0C265360966149689163EF
:102D30001462F6E0026843F20045146A136AC4F2B2
:102D4000010523F4807313625368D2F81CE0AA4291
:102D50008D68D1F800C024F4007444EA052405D03D
:102D600042F60045C4F20105AA4207D1CD6840F2FF
:102D7000FF462D0224F44064B5432C43A2F1804564
:102D8000A5F596354FEAB525072D0DD8012606FA8B
:102D900005F515F0E50F1FBF23F44053D1E90556A3
:102DA00043EA051343EA06134FF68C75CFF6FE751A
:102DB0000EEA050646EA0C065360D6614968D163FF
:102DC0001462AEE0026843F20045146A136AC4F26A
:102DD000010523F4805313625368D2F81CE0AA4221
:102DE0008D68D1F800C024F4005444EA053405D0BD
:102DF00042F60045C4F20105AA4207D1CD6844F667
:102E0000FF762D0324F44044B5432C43A2F18045C2
:102E1000A5F596354FEAB525072D0DD8012606FAFA
:102E200005F515F0E50F1FBF23F44043D1E9055622
:102E300043EA851343EA861348F6FF45CFF6FF655C
:102E40000EEA050646EA0C265360D661496811640D
:102E5000146266E00268D2F820C0136AA2F18046CC
:102E600023F480331362A6F596365368146D0D680B
:102E7000D1F808E04FEAB626072E0AD8012707FA4C
:102E800006F616F0E50F1EBF4E6923F4803343EAC1
:102E900006234FF68C76CFF6FE760336344044EAAE
:102EA00005065360166549682CF4003747EA0E435F
:102EB000916435E00121002280F83C200846F0BDF5
:102EC0000268D2F820C0136AA2F1804623F480136E
:102ED0001362A6F596365368156D0C68D1F808E0B4
:102EE0004FEAB626072E0AD8012707FA06F616F08B
:102EF000E50F1EBF4E6923F4802343EA862348F67C
:102F0000FF46CFF6FF6606F54076354045EA0426D3
:102F1000536016652CF40017496847EA0E53D164D4
:102F200013620021002280F83C200846F0BD00001A
:102F3000F0B581B02DED088B007F082852D140F20A
:102F40000044C4F6000420464FF400710122FEF74D
:102F5000BFFA40F2FC10C2F20000FEF73FF940F267
:102F60006820C2F20000FEF739F901F02BF9BDEE3E
:102F7000C00A40F21C0710EE100AC2F20007788661
:102F8000B0F5C87FB8BF00F58040A0F5C87045F621
:102F9000070111FB00F14A1602EBD17140F2D15248
:102FA0009FEDC88A01FB1200B8EEC01A21EE080A94
:102FB00001B287ED140AB1F53A7FC8BFA0F2D15033
:102FC00001B2388601EE101A9FEDBF2AD7E90D1025
:102FD000B8EEC11A21EE021A814287ED0F1A05DD03
:102FE000013048E0BDEC088B01B0F0BD97ED151A3B
:102FF00030EE410ABFEE001AB4EE410AF1EE10FACB
:1030000087ED160A0ADDB7EE001AB4EE410AF1EEBA
:1030100010FA11DB9FEDAE1A02E000BF9FEDAB1A74
:1030200030EE010A20464FF40071012287ED160AA6
:10303000FEF74EFA97ED160A9FEDA61A97ED182A9D
:1030400020EE010A97ED231A97ED193A20EE010AB6
:103050009FEDA11A07F1CC0022EE011A31EE000A11
:1030600087ED180A33EE400A01F01CFB386D87ED3E
:10307000080A7865012040F2FC15C2F20005B86329
:103080002846FDF709FF40F26826C2F200063046E6
:10309000FDF702FF3046FDF701FFA0F2BC7000EE25
:1030A000100A9FED8E9AB8EEC00A97ED011A9FEDB7
:1030B0008CAA9FED8CBA20EE090A21EE0A1A20EEA6
:1030C0000B0A30EE010A284687ED010AFDF7E6FEFD
:1030D000A0F2BC7000EE100AB8EEC00A97ED023AFA
:1030E00020EE091A97ED012A23EE0A3A21EE0B1A77
:1030F00031EE031A97ED0F0A87ED021A32EE011A2C
:10310000B1EE411A87ED001AFDF76EFC07F1900051
:10311000FDF72EFC97ED010A97ED021A9FED724A1A
:1031200030EE015A21EE041A9FED704AB7F84600BE
:10313000798E97ED262A97ED273A20EE040A30EE95
:10314000010A411A87ED1A2A87ED1B3A23EE001A6D
:1031500025EE024A22EE002A25EE033A08B2B1EE2D
:10316000456A31EE441A33EE022AB0F5005F87ED6E
:10317000036A87ED040A87ED051A87ED062AA7F88A
:10318000441003DD4BF69C7105E000BF10F5005FB5
:1031900004DA44F264010844A7F8440000B200EEE7
:1031A000100A9FED531AB7F94A00B8EEC00A20EE94
:1031B000010A01EE100A9FED4F2AB8EEC11A21EE66
:1031C000021A20EE083AB7F94C1033EE011ABDEEA0
:1031D000C11A11EE100A01EE101AB8EEC11A21EE52
:1031E000021A30EE010ABDEEC01AA7F84800A7F88F
:1031F0004A0011EE100AB8EEC10AA7F84C0007F118
:10320000A00001F04FFA97ED181A87ED190A30EE79
:10321000410A07F1CC0001F045FA97ED061A87ED57
:10322000080A30EE410A07F5927001F03BFA97ED7B
:10323000051A97ED072A87ED0A0A32EE410A07F1CF
:10324000F80001F02FFA40F2A415D7ED0A0A97ED25
:103250000B1A97ED1A2AD7ED1B1AC2F20005284661
:1032600087ED090A01F094FB95ED0F0A9FED222AE4
:1032700095ED101A20EE020A40F23830BDEEC00A79
:10328000C2F2000095ED113A036810EE100A21EE2B
:10329000020ABDEEC00A586310EE100A23EE020ABD
:1032A000BDEEC00A10EE107A986320464FF400710C
:1032B0000022DF63BDEC088B01B0BDE8F040FEF7F3
:1032C00007B900BFDB0FC939E63A8A3BD00FC940C6
:1032D000D00FC9C00AD7A33B52B87E3FD5FFFF39F4
:1032E0003333333F9A9999BE36CD13BF36CD133F52
:1032F000CDCCCC3D6666663F00C88445002804BF3F
:103300000120704710B5044690F83D0028B9002010
:1033100084F83C00204600F023F8022084F83D00A9
:103320002068211D01F00AFD012084F8480084F87E
:103330003E0084F83F0084F8400084F8410084F89F
:10334000420084F8430084F8440084F8450084F87F
:10335000460084F8470084F83D00002010BD0000BE
:103360007047000061B10A1F4FEAB202032A17D862
:10337000DFE802F0021A1E2200F13F031EE000BF48
:1033800090F83E20012A1CBF01207047022280F8DD
:103390003E204FEAB103032B4FF0010241D84CE02D
:1033A00000F143030AE000BF00F1400306E000BF64
:1033B00000F1410302E000BF00F142031B78012B42
:1033C0001CBF01207047032A0ED8DFE802F0031764
:1033D000212D00BF022280F83F204FEAB103032BCA
:1033E0004FF001021DD828E0022280F843204FEA66
:1033F000B103032B4FF0010213D81EE0022280F824
:1034000040204FEAB103032B4FF0010209D814E02A
:10341000022280F841204FEAB103032B4FF0010252
:103420000BD91046704700BF022280F842204FEAB5
:10343000B103032B4FF00102F3D846F2D01C006811
:10344000C0F6000C5CF823C0C36801F01F0143EA1A
:103450000C03C360036A02FA01F123EA010202626B
:10346000026A0A43A0F18041A1F596314FEAB121E9
:103470000629026246D8012202FA01F111F0650F15
:1034800040D0416C42F6FF32C4F2010241F40041E7
:103490009042416410DCB0F1804F1FD040F20041F7
:1034A000C4F20001884219D040F60001C4F20001C4
:1034B000884213D01EE000BF42F60041C4F2010171
:1034C00088420BD044F20001C4F20101884205D0C9
:1034D00043F20041C4F2010188420BD18168072206
:1034E000C0F20102114006294FF0000299D0B1F557
:1034F000803F96D00168002241F001010160104632
:10350000704700BF42F6FF31C4F201018842C2DDBC
:1035100043F6FF71C4F20101884207DC42F6004124
:10352000C4F201018842D3D1D8E700BF44F20001C0
:10353000C4F201018842D1D044F60001C4F2010175
:10354000884202BF416C41F400414164D2E700006F
:103550002DE9F04190F83C30012B04BF0220BDE87A
:10356000F0814FEAB202052A00F28481DFE812F00E
:1035700006005000A200F40046018A0103681D6A9B
:103580001A6AA3F1804622F001021A621A465C68A8
:1035900052F818CF8F68A6F59636D1F800E025F0DE
:1035A00002054FEAB626072E45EA07050AD8012785
:1035B000B74017F0E50F1FBFCF6825F00C0527F0C7
:1035C00004073D43072E0BD8012707FA06F616F02D
:1035D000E50F1FBF24F44074D1E9056734433C4331
:1035E0004FF68C76CFF6FE760CEA060747EA0E0712
:1035F0005C609F614F6809695F631D629F6947F066
:1036000008079F619F6927F004079F6177E100BF6A
:10361000036843F200461D6A1A6AC4F2010622F0EA
:1036200010021A621A465C6852F818EFB3428E68AC
:10363000D1F800C025F0200545EA061505D042F670
:103640000046C4F20106B34207D1CE686FF04007CE
:1036500025F0C00507EA06163543A3F18046A6F516
:1036600096364FEAB626072E0DD8012707FA06F63A
:1036700016F0E50F1FBF24F44064D1E9056744EA62
:10368000860444EA870448F6FF46CFF6FF660EEA52
:10369000060747EA0C275C609F614F6809699F63D2
:1036A0001D629F6947F400679F619F6927F48067E7
:1036B0009F6123E1036843F200461D6A1A6AC4F25F
:1036C000010622F480721A621A465C6852F81CCF16
:1036D000B3428E68D1F800E025F4007545EA06256E
:1036E00005D042F60046C4F20106B34207D1CE68C7
:1036F00040F2FF47360225F44065BE433543A3F14F
:103700008046A6F596364FEAB626072E0DD8012735
:1037100007FA06F616F0E50F1FBF24F44054D1E96E
:10372000056744EA061444EA07144FF68C76CFF690
:10373000FE760CEA060747EA0E075C60DF614F6819
:103740000969DF631D62DF6947F00807DF61DF6930
:1037500027F00407DF61D2E0036843F200461D6AE8
:103760001A6AC4F2010622F480521A621A465C6890
:1037700052F81CCFB3428E68D1F800E025F4005512
:1037800045EA063505D042F60046C4F20106B342CA
:1037900007D1CE6844F6FF77360325F44045BE4393
:1037A0003543A3F18046A6F596364FEAB626072E96
:1037B0000DD8012707FA06F616F0E50F1FBF24F40F
:1037C0004044D1E9056744EA861444EA871448F680
:1037D000FF46CFF6FF660CEA060747EA0E275C6055
:1037E000DF614F6809691F641D62DF6947F4006784
:1037F000DF61DF6927F48067DF617FE00368D3F86A
:1038000020C01A6AA3F1804722F480321A621A4655
:10381000A7F596375D6852F8508FD1F800E08E68B2
:103820004FEAB727072F09D80124BC4014F0E50F51
:103830001EBF4C6925F4803545EA04252CF4003779
:1038400047EA06474FF68C76CFF6FE76033606EA51
:10385000080646EA0E065D601E654E6809699E64AC
:103860001F621F6D47F008071F651F6D27F00407D3
:103870001F6544E00121002280F83C200846BDE895
:10388000F08100BF0368D3F820C01A6AA3F1804713
:1038900022F480121A621A46A7F596375D6852F82C
:1038A000508FD1F800E08E684FEAB727072F09D86C
:1038B0000124BC4014F0E50F1EBF4C6925F480259F
:1038C00045EA84252CF4001747EA065748F6FF46D8
:1038D000CFF6FF6606F5407606EA080646EA0E26AB
:1038E0005D601E654E680969DE641F621F6D47F4E6
:1038F00000671F651F6D27F480671F650902136845
:10390000194311600021002280F83C200846BDE8E0
:10391000F0810000002804BF0120704710B5044664
:1039200090F83D0028B9002084F83C00204600F0C3
:1039300023F8022084F83D002068211D01F0FEF9E3
:10394000012084F8480084F83E0084F83F0084F8A1
:10395000400084F8410084F8420084F8430084F871
:10396000440084F8450084F8460084F8470084F851
:103970003D00002010BD000080B582B0006842F616
:103980000041C4F2010188421CBF02B080BD41F277
:103990006000C4F202000168002241F4006101608D
:1039A0000068002100F40060019001981920FDF7E3
:1039B00009FE1920FDF7F6FD1A2000210022FDF76F
:1039C00001FE1A20FDF7EEFD1B2000210022FDF76D
:1039D000F9FD1B2002B0BDE88040FDF7E3BD00000B
:1039E0007047000061B10A1F4FEAB202032A11D8E2
:1039F000DFE802F00214181C00F13F0318E000BFDA
:103A000090F83E20012A1CBF01207047022280F856
:103A10003E202CE000F143030AE000BF00F1400328
:103A200006E000BF00F1410302E000BF00F14203E5
:103A30001B78012B1CBF01207047032A08D8DFE840
:103A400002F0030B0F1300BF022280F83F200EE0AC
:103A5000022280F843200AE0022280F8402006E09B
:103A6000022280F8412002E0022280F8422002680F
:103A700001F01F010120136A00FA01F18B43136268
:103A8000136A0B43A2F18041A1F596314FEAB121AF
:103A90000629136244D8884010F0650F40D0506C5E
:103AA00042F6FF31C4F2010140F400408A42506402
:103AB00010DCB2F1804F1FD040F20040C4F2000091
:103AC000824219D040F60000C4F20000824213D0B6
:103AD0001FE000BF42F60040C4F2010082420BD05A
:103AE00044F20000C4F20100824205D043F20040DB
:103AF000C4F2010082420CD190680721C0F201019A
:103B0000014006294FF0000008D0B1F5803F08BF02
:103B10007047106840F0010010600020704700BF3F
:103B200042F6FF30C4F201008242C2DD43F6FF706C
:103B3000C4F20100824207DC42F60040C4F20100F8
:103B40008242D3D1D8E700BF44F20000C4F20100A2
:103B50008242D1D044F60000C4F20100824202BF8A
:103B6000506C40F400405064D3E7000040F238311C
:103B7000C2F20001884218BF7047B0B540F600009D
:103B8000C4F600004FF48041FDF79AFC40F2FC14AB
:103B9000C2F200042046FDF721FB40F26825C2F284
:103BA00000052846FDF71AFB2046FDF775F9284663
:103BB000FDF772F900F006FB40F2F810C2F20000C7
:103BC00080ED000ABDE8B04070470000704700007B
:103BD00090F88410012904BF022070472421C0F806
:103BE000881002681168136823F00103136021F044
:103BF00000530021416613602022C0F8882080F81D
:103C00008410084670470000B0B590F88420012A5F
:103C100004BF0220B0BD2422C0F888200268D0F87A
:103C200064E0D2F800C01368BEF1000F23F0010376
:103C30001360936823F0606341EA0301916019D037
:103C40009368916846F2002E490FC0F6000E46F2C6
:103C500008251EF80140C0F60005695CC3F3426305
:103C6000E400B4FBF1F11EF80340EB5CE500B5FBAA
:103C7000F3F301E001210123A0F86A102021A0F84C
:103C80006830C2F800C0C0F88810002180F88410A5
:103C90000846B0BDB0B590F88420012A04BF0220C8
:103CA000B0BD2422C0F888200268D0F864E0D2F8C1
:103CB00000C01368BEF1000F23F001031360936886
:103CC00023F0604341EA0301916019D09368916841
:103CD00046F2002E490FC0F6000E46F208251EF8E7
:103CE0000140C0F60005695CC3F34263E400B4FB25
:103CF000F1F11EF80340EB5CE500B5FBF3F301E0E6
:103D000001210123A0F86A102021A0F86830C2F830
:103D100000C0C0F88810002180F884100846B0BDAB
:103D200010B5D8B10446D0F8880028B9002084F82E
:103D30008400204600F026F82420C4F8880020687B
:103D4000A16A026822F00102026011B1204601F06E
:103D500083F8204601F0ACF9012801D1012010BD03
:103D60002168486820F490404860886820F02A0064
:103D70008860086840F0010220460A60BDE81040F3
:103D800001F0DEB810B596B0044668460430402114
:103D9000FCF776FA206844F20041C4F20001884240
:103DA00002D016B010BD00BF022468460094FDF793
:103DB000E3FC002818BFFCF72FFE41F24C00C4F2D0
:103DC0000200C16841F40031C160C16801F40031F2
:103DD00011911199016841F001010160006811A978
:103DE00000F00100119011980C20CDE91104002081
:103DF000CDE91300072015904FF09040FDF772FABF
:103E000016B010BD2DE9F0410446D0F888002028F6
:103E10001CBF0220BDE8F0810F4600294FF00100D1
:103E200000F08C801646002A08BFBDE8F0814FF0F4
:103E3000000821201D46C4F89080C4F88800FDF7D2
:103E40004DFBA4F85460A4F85660A1680646B1F58D
:103E5000805F05D12069002814BF3846B846074660
:103E6000B4F85600E0B1681C1CD0002D68D1216860
:103E70000BE000BF17F8010B8862B4F85600013858
:103E8000A4F85600B4F8560078B3C86900064FD5B8
:103E9000002FEFD138F8020B00276FF35F20EBE71C
:103EA000216822E0216802E0C869000609D4C869D7
:103EB000000606D4C86900065CBFC8695FEA0060F6
:103EC000F2D51FB117F8010B05E000BF38F8020B5F
:103ED00000276FF35F208862B4F856000138A4F819
:103EE0005600B4F856000028E1D1C86940061DD438
:103EF000F5B1681C10D100BFC869400616D4C86966
:103F0000400613D4C869400610D4C86940064FF073
:103F10000000F1D50FE000BFFDF7E0FA801BA842DA
:103F200008D820680168C0694006F5D5002002E085
:103F3000FDF7D4FA03202021C4F88810BDE8F081F1
:103F4000216800BFC869000608D4FDF7C7FA801BC6
:103F5000A842EFD821680868F4E700BF17B117F846
:103F6000010B04E038F8020B00276FF35F20886232
:103F7000B4F856000138A4F85600B4F856000028EA
:103F8000E0D1B2E7FEE7000070B52DED0A8B4FF4EB
:103F9000A8710446FCF774F90020C4F240101425FF
:103FA000E0624CF6CD40002100224BF217734EF236
:103FB0003C5665630025C3F64C60C4F23421C4F25C
:103FC0003012C3F65103C3F20776C4F27A45C4E94E
:103FD0001E32C4E92060C4E9221500F0F3F8BDEEFA
:103FE000C00AB8EEC01A10EE100A9FED540A2086DF
:103FF00021EE000AB0F5C87F84ED140ABCBF00F5BD
:104000008040208640F21C00C2F20000B0F930006F
:1040100047F24501A0F5C870C2F6034150FB01F11B
:104020000A1202EBD17140F2D15201FB12009FED56
:10403000442AB0F53A7FC8BFA0F2D15001B201EED8
:10404000101A40F23835B8EEC11AC2F200052086C7
:1040500021EE021A2846002184ED0F1A84ED150A7C
:104060000026FFF7BFFC28460021FEF70DFC28685C
:10407000042146632846FFF7B5FC28460421FEF7D5
:1040800003FC2868082186632846FFF7ABFC284616
:104090000821FEF7F9FB286841F29801C663016424
:1040A00028460C21FFF75EF940F2DC50FDF706F9D7
:1040B0009FED240A9FED248A04F1A000F8EE001A77
:1040C000B0EE002AF0EE400AB0EE481A01F032FBE2
:1040D0009FED1E0ADFED1E0ADFED1E1A9FED1E2A60
:1040E00004F1CC00B0EE481A01F024FB9FED1B9ABE
:1040F0009FED1BAAB9EE04BAB1EE04CA04F1F800B0
:10410000B0EE490AF0EE4A0AB0EE481AF0EE4B1A49
:10411000B0EE4C2A01F00EFB04F59270B0EE490AA5
:10412000F0EE4A0AB0EE481AF0EE4B1AB0EE4C2A06
:10413000BDEC0A8BBDE8704001F0FCBADB0FC93959
:10414000E63A8A3B17B7D13800000000CDCC4C3D91
:10415000ACC5A736CDCC4CBFCDCC4C3FCDCCFC4074
:104160003333F33F40F60040C4F2020001684FF6DB
:104170000002CFF68772114041F4002141F0A00106
:104180000160704710B52DED088B04460C302421DA
:10419000B0EE618AB0EE419AB0EE60AAB0EE40BADD
:1041A000FCF76EF889EE080A84ED009A84ED018A26
:1041B00084ED0CBA84ED0DAA84ED020ABDEC088BE7
:1041C00010BD00002DE9F04182B040F20048C4F675
:1041D000000840464FF480510022FDF779F940F283
:1041E000D42540F2140640F2F417C2F20005C2F2E0
:1041F0000006C2F200074FF0FF34284631463A4627
:1042000001230094FEF7E0F8B11CBA1C28460123F4
:104210000094FEF7D9F840464FF480510122FDF793
:1042200057F9798838783D2202EA910141EA8010F5
:1042300000EE100AB8EE400A02B0BDE8F0810000BE
:1042400010B58CB040F2FC10C2F200004FF0A0415B
:1042500000244FF44032042380E816000121CDE908
:104260000A44CDE90744CDE90544CDE90344CDE94D
:104270000144C0E90344C0E905438483016280F836
:104280002440C0E90B4480F83840C46380F84040C3
:10429000FCF708FE002818BFFCF7BEFB40F2FC103C
:1042A000C2F2000009A90994FCF7BCFB002818BF62
:1042B000FCF7B2FB0220C0F23040019006200290D1
:1042C00004207F210390CDE904100020069040F2E5
:1042D000FC10C2F2000001A9FCF704FC002818BF82
:1042E000FCF79AFB0CB010BDB0B588B040F2682066
:1042F00040F20011C2F20000C5F2000100244FF4A8
:104300004032042580E816000121CDE90644C0E9C9
:104310000344C0E905458483016280F82440C0E974
:104320000B4480F83840C46380F84040FCF7BAFD85
:10433000002818BFFCF770FB0820C0F690400090E2
:104340000620CDE901057F20CDE9030540F2682074
:10435000C2F2000069460594FCF7C4FB002818BFB0
:10436000FCF75AFB08B0B0BD81B041F24800C4F27E
:104370000200016841F008010160006800F00800D7
:104380000090009801B070472DE9F04387B00027F6
:1043900041F24C000697C4F20200016840F2004866
:1043A00041F0040101600168C4F6000801F0040155
:1043B00001910199016808F5806641F020010160D2
:1043C0000168002201F020010191019901684FF478
:1043D000404441F001010160016801F001010191D7
:1043E0000199016841F00201016000684FF4404109
:1043F00000F00200019001983046FDF769F84FF097
:104400009040102100224FF01009FDF761F840465E
:104410004FF490510022FDF75BF802AD02940124A5
:1044200030462946CDE903470597FCF75BFF4FF07F
:1044300090402946CDE90294CDE90477FCF752FF7C
:104440004FF4805002A991C10220059040462946B0
:10445000FCF748FF4FF4007002A991C1404629467D
:104460000597FCF73FFF07B0BDE8F08370B540F259
:10447000D42043F60001C2F20000C4F200014FF460
:10448000827200234FF4706C4FF0020E012480E81A
:104490000E5000F114014FF40075182670C1072169
:1044A000C0E90833C0E90A31C0E90C33FDF7E4FE86
:1044B000002808BF70BDBDE87040FCF7ADBA000031
:1044C00010B598B0002401A83421CDE91644CDE9F7
:1044D0001444CDE91244CDE91044CDE90E44FBF774
:1044E000CFFE40F2383042F60041C2F20000C4F282
:1044F00001014022C0E9001400F1080141F29903D2
:104500001CC1C0E90544FFF705FA002818BFFCF7F5
:1045100083FA40F23830C2F20000FEF7EFFE0028C6
:1045200018BFFCF779FA40F238300024C2F20000DC
:1045300015A9CDE915441794FEF754F9002818BFC2
:10454000FCF76AFA6020CDE90E040820CDE91104D9
:104550004FF40070149040F23830C2F200000EA9FF
:10456000002210941394FEF7F3FF002818BFFCF705
:1045700053FA40F23830C2F200000EA90422FEF7CE
:10458000E7FF002818BFFCF747FA40F23830C2F2C4
:1045900000000EA90822FEF7DBFF002818BFFCF779
:1045A0003BFA10200E9040F238300024C2F2000096
:1045B0000EA90C2211941494FEF720FB002818BFBA
:1045C000FCF72AFA4FF4006001904FF48060CDE9C7
:1045D00002041420CDE904044FF40050CDE9060490
:1045E0004FF00070CDE90A0440F23830C2F200000A
:1045F00001A9CDE90844CDE90C44FEF787F800286D
:1046000018BFFCF709FA40F23830C2F20000FEF79A
:104610009BFA18B010BD000080B540F2843044F21F
:104620000041C2F20000C4F2000100234FF00C0C64
:104630004FF4E13280E80E00C0E90333C0E905C35E
:10464000C0E90733C0E90933FFF76AFB002818BF48
:10465000FCF7E2F940F28430C2F200000021FFF7DB
:1046600019FB002818BFFCF7D7F940F28430C2F2DA
:1046700000000021FFF7C8FA002818BFFCF7CCF9AA
:1046800040F28430C2F20000FFF7A2FA002808BF0F
:1046900080BDBDE88040FCF7BFB90000FEE7000028
:1046A000FEE7000090ED042A90ED001A90ED013A2B
:1046B00090ED075A90ED024A32EE002A21EE001AE0
:1046C00030EE455A23EE023A80ED031A24EE054AF5
:1046D00033EE013A90ED081A34EE033AB4EE413A63
:1046E00080ED060A80ED042A80ED054A80ED070A78
:1046F000F1EE10FA80ED0A3AD1BFB0EE431A80ED28
:104700000A1A32EE402A80ED042A90ED093AB4EEFE
:10471000431AF1EE10FA07DA32EE400AB0EE431A0D
:1047200080ED0A3A80ED040AB0EE410A70470000BD
:10473000704700002DE9F04782B000261F469046E2
:104740000D4681468DF80360FCF7C8FE381A00EB71
:104750000807FCF7C3FE40F21001C2F2000109682D
:1047600023225143090DD9F8004079430191A168F2
:10477000294271D0824618F1010037D0B5F5C06FDB
:104780001CD100BF207B8DF803009DF80300FCF7CF
:10479000A5FEA0EB0A00B84262D201980199002858
:1047A000A1F101010191D9F80010896808BF0746FD
:1047B00011F4C06FE6D100264EE000BFFCF78EFE7C
:1047C000A0EB0A00B8424BD2019801990028A1F150
:1047D00001010191D9F80010896808BF07462942F4
:1047E000ECD10026304602B0BDE8F0870026B5F5D2
:1047F000C06F25D1207B8DF803009DF80300A068D1
:1048000010F4C06FEDD0207B8DF803009DF80300FD
:10481000A06810F4C06FE4D0207B8DF803009DF8F1
:104820000300A06810F4C06FDBD0207B8DF803007C
:104830009DF80300A06810F4C06FDBD10CE000BF4E
:10484000A0682842CDD0A0682842CAD0A0682842DB
:10485000C7D0A0682842F3D1304602B0BDE8F08747
:10486000D9E900014268B1F5827F22F0E00242609E
:104870000BD1D9F80810B1F5004F02D0B1F5806F17
:1048800003D1016821F040010160D9F82810B1F589
:10489000005F07D1016821F400510160016841F413
:1048A00000510160012089F85D00002089F85C005A
:1048B0000326304602B0BDE8F0870000F0B581B0B5
:1048C00015460E460446FCF709FE281A8719FCF720
:1048D00005FE40F21001C2F200010968C1F3CB31BC
:1048E0007943009121688A68120622D50546701C1A
:1048F00015D000BFFCF7F2FD401BB8421CD2009857
:1049000000990028A1F1010100912168896808BF80
:1049100007460806EED40CE08868000609D58868CA
:10492000000606D58868000644BF88685FEA006014
:10493000F2D4002001B0F0BDD4E900014268B1F525
:10494000827F22F0E00242600AD1A168B1F5004FF7
:1049500002D0B1F5806F03D1016821F04001016000
:10496000A16AB1F5005F07D1016821F4005101602F
:10497000016841F400510160012084F85D000020CD
:1049800084F85C00032001B0F0BD00007047000017
:1049900090ED023A90ED034A83EE013A84EE014A2B
:1049A00020EE025A20EE822A20EE210A20EEA11AE1
:1049B00030EE020A9FEDD02A35EE411A21EE025A5E
:1049C000B5EE400A80ED045AF1EE10FAB0EEC55A89
:1049D00080ED053A80ED064A80ED021A80ED030A6B
:1049E0002CDAB1EE400AB4EE405AF1EE10FA4BDA8E
:1049F00040F20C02C2F2000292ED000A24EE021A0A
:104A0000B7EE082A24EE000A23EE022ABFEE084A77
:104A100032EE002A23EE043A052133EE003AB1EEDD
:104A2000420AC16480ED071A80ED082A80ED093A38
:104A300080ED0B0AB1EE431ABCE000BFB4EE405A61
:104A4000F1EE10FA48DA40F20C02C2F2000292EDE6
:104A5000000A24EE022A24EE000AB7EE081ABFEE7E
:104A6000084A23EE011A23EE043A022131EE001A1D
:104A700033EE000AC16480ED072A80ED081A80ED4C
:104A8000090A80ED0B0A95E0B5EE401AF1EE10FA36
:104A90004ADD40F20C02C2F2000292ED000ABFEEC3
:104AA000086A24EE005AB7EE080A24EE021A23EE32
:104AB000000A23EE063A062130EE050A33EE053AE7
:104AC00080ED071A24EE421AC16480ED080A80EDD9
:104AD000093A80ED0B0A6DE0B5EE401AF1EE10FADE
:104AE00046DD40F20C02C2F2000292ED000A24EE12
:104AF000021A24EE000AB7EE082ABFEE084A23EE97
:104B0000022A23EE043A32EE002A33EE000A012193
:104B100080ED090AB1EE400AC16480ED071A80ED0C
:104B2000082A80ED0B0A45E040F20C02C2F20002B6
:104B300092ED000AB7EE081A24EE000A23EE011ADD
:104B400031EE006ABFEE081A23EE011A042124EEAA
:104B5000025A31EE001A24EE420AC16480ED075A6F
:104B600080ED086A80ED091A80ED0B0A22E000BF93
:104B700040F20C02C2F2000292ED001A24EE020A88
:104B800024EE011AB7EE082ABFEE084A23EE022AE5
:104B900023EE043A032132EE012A33EE011AC164F6
:104BA00080ED070A80ED082A80ED091A80ED0B0AD6
:104BB000B1EE421A30EE013AB7EE002AB4EE423AB4
:104BC000F1EE10FA80ED0C1A0DDD80EE030A81EE95
:104BD000031A80ED123A80ED0B0A80ED0C1A80ED7D
:104BE0000D0A80ED0E1A32EE403A013933EE413AA9
:104BF000052980ED0A3A17D8DFE801F0041E324497
:104C0000586A00BFB6EE002A30EE010A23EE023ADF
:104C100030EE030A31EE031A80ED0F0A80ED101A10
:104C200080ED113A704700BF9FED343A0021C16317
:104C3000016480ED113A7047B6EE004A23EE043A63
:104C400030EE034A30EE010A32EE442A30EE030A17
:104C500080ED0F2A80ED100A80ED113A704700BFF9
:104C6000B6EE002A23EE022A30EE010A30EE020AE6
:104C700031EE023A80ED0F2A80ED100A80ED113AF4
:104C8000704700BFB6EE004A23EE043A30EE034A06
:104C900030EE010A32EE442A80ED0F3A30EE033A4C
:104CA00080ED102A80ED113A704700BFB6EE002A61
:104CB00023EE022A31EE023A30EE010A80ED0F3A7D
:104CC00030EE023A80ED102A80ED113A704700BFB5
:104CD000B6EE004A23EE043A30EE011A30EE030A33
:104CE00031EE031A80ED103A32EE403A80ED0F1AA1
:104CF00080ED113A704700BFD9B3DD3F00000000DE
:104D0000FCF7F2BB4EF68850CEF20000016841F489
:104D1000700101607047000040F23830C2F20000BC
:104D2000FDF72CBE40F23830C2F20000FDF726BE7F
:104D300040F23830C2F20000FDF720BE80B540F2EC
:104D4000FF7C0268C4F2000C604521DD40F60003E0
:104D5000C4F20003984224D043F20043C4F201039A
:104D600098421ED042F60043C4F20103984218D084
:104D700043F2FF33C4F2010398421CDC604529DC96
:104D8000B0F1804F3CD040F20043C4F2000335E064
:104D9000B0F1804F05D040F20043C4F200039842C6
:104DA000E6D14B6822F070021A4343F2FF33C4F29B
:104DB00001039842E2DD44F2FF33C4F2010398425A
:104DC00012DC43F20043C4F20103984218D044F2CB
:104DD000000311E040F60003C4F2000398420FD034
:104DE00042F6004308E000BF44F60003C4F20103AA
:104DF000984205D044F20043C4F20103984203D123
:104E0000CB6822F440721A434B6922F0800E8A6804
:104E100043EA0E03D1F800C00360C262A0F18042F1
:104E2000A2F596324FEAB222072AC0F828C007D866
:104E3000012303FA02F212F0E50F1CBF09690163B6
:104E4000012141610169C90708BF80BD016921F0E5
:104E50000101016180BD000080B5816A0A070DD49F
:104E6000CA0716D18A071FD44A0728D4CA0631D4E4
:104E70008A063AD44A0658D542E000BF0268D0F804
:104E800038C0536823F4004343EA0C035360CA0755
:104E9000E8D00268D0F82CC0536823F4003343EA0A
:104EA0000C0353608A07DFD50268D0F830C053681E
:104EB00023F4803343EA0C0353604A07D6D50268D3
:104EC000D0F834C0536823F4802343EA0C035360C2
:104ED000CA06CDD50268D0F83CC0936823F480534D
:104EE00043EA0C0393608A06C4D50268D0F840C038
:104EF000936823F4005343EA0C0393604A0614D5E5
:104F00000268D0F844C05368BCF5801F23F48013B6
:104F100043EA0C03536008D1D2F804C0D0F848E04B
:104F20002CF4C00343EA0E035360090658BF80BD4A
:104F30000168C06C4A6822F400221043486080BDBA
:104F4000B0B582B004460020C4F89000FCF7C6FA61
:104F5000216805460A68120737D56FF07E4C204657
:104F60004FF4001100222B46CDF800C000F0F2F9FA
:104F700050B300BF206850E8000F216820F0800087
:104F800041E80002DAB1206850E8000F216820F003
:104F9000800041E8000292B1206850E8000F2168CB
:104FA00020F0800041E800024AB1206850E8000F7C
:104FB000216820F0800041E80002002ADAD1202098
:104FC000C4F8880060E000BF21680868400761D528
:104FD0006FF07E4C20464FF4800100222B46CDF826
:104FE00000C000F0B7F9002854D000BF206850E896
:104FF000000F216820F4907041E80002E2B12068BF
:1050000050E8000F216820F4907041E800029AB146
:10501000206850E8000F216820F4907041E80002F9
:1050200052B1206850E8000F216820F4907041E8E8
:105030000002002ADAD100BF206850E8020F216880
:1050400020F0010041E80202DAB1206850E8020FC6
:10505000216820F0010041E8020292B1206850E886
:10506000020F216820F0010041E802024AB12068E5
:1050700050E8020F216820F0010041E80202002AF6
:10508000DAD12020C4F88C000320002184F8841099
:1050900002B0B0BD2020C4F88800C4F88C00002005
:1050A000E0662067002184F8841002B0B0BD0000E3
:1050B00070B504462269D4E9021300680A436169A5
:1050C000E6691143026846F6F315CCF6FF753143E5
:1050D0002A4011430160416848F2000C21F440511C
:1050E00019434160A269C4F2000C60451CBF216AEB
:1050F0000A4381684FF2FF43C1F2FF131940114385
:105100008160C16AD4F824E021F00F0141EA0E0168
:10511000C16244F6FF31C4F2000188424FF010032F
:1051200014DD44F60041C4F20001884222D06045FB
:1051300028D043F60001C4F20101884238D141F27F
:105140008801C4F202010B687EA22DE044F2004106
:10515000C4F2000188421DD044F60001C4F20001EF
:10516000884225D141F28801C4F2020109680B0985
:1051700016E000BF41F28801C4F2020109688B0900
:105180000EE000BF41F28801C4F2020109688B0AF7
:1051900006E000BF41F28801C4F2020109688B08F1
:1051A00046F2F012C0F6000203F0030152F821307B
:1051B000604542F20040C0F2F40015D0B6F5004F51
:1051C00024D1082B4FF0010100F2B380DFE803F097
:1051D000065E6CB164B1B1B16A0000BFFCF78CFD32
:1051E000002856D15CE000BF082B4FF0010100F20F
:1051F000A080DFE803F0059E259E1D9E9E9E230055
:10520000FCF77AFDC0B1D4F824E019E0082B4FF088
:10521000010100F28E80DFE803F00565738C6B8C72
:105220008C8C7100FCF768FD00285ED164E000BF43
:10523000FCF78EFD0028E6D100217AE04FF4004013
:1052400046F2B611C0F6000131F81E106268B0FBDC
:10525000F1F002EB420188424FF0010169D31303E0
:10526000984266D8010E000210EB520041F1000195
:105270000023FAF7CDFF4FF60052A0F54071C0F2BF
:105280000F0291424FD3012153E000BFFCF74AFDCA
:1052900030B1D4F824E007E0FCF75AFD0028F8D13B
:1052A000002146E04FF4004046F2B611C0F600017E
:1052B00031F81E106268B0FBF1F0510801EB4000BC
:1052C000B0FBF2F04FF6EF72A0F11001914207D857
:1052D0004FF6F0710140C0F34200084423E000BFE4
:1052E000012126E0FCF71EFD30B1D4F824E007E0F0
:1052F000FCF72EFD0028F8D100211AE04FF4004001
:1053000046F2B611C0F6000131F81E104FF6EF72EA
:10531000B0FBF1F0616800EB5100B0FBF1F0A0F1DF
:105320001001914204D82168C860002101E000BF4B
:1053300001214FF00110A066002208466267A267B3
:1053400070BD00BF0100000004000000020000006A
:10535000080000002DE9F041804600681546C2694A
:105360000E461140891BB1FA81F14909A94223D1A6
:10537000069C2CB3611C29D1C1693140891BB1FA4B
:1053800081F14909A94217D1C1693140891BB1FA9C
:1053900081F14909A9420FD1C1693140891BB1FA94
:1053A00081F14909A94207D1C1693140891BB1FA8C
:1053B00081F14909A942DFD00020BDE8F08100BF9A
:1053C000FCF78CF80320BDE8F08100BF1F4607E022
:1053D000C0693040801BB0FA80F04009A842EBD190
:1053E000FCF77CF8C01BA04242D8D8F80000016846
:1053F0004907EDD5402EEBD0802EE9D0C1690907D1
:105400003AD4C1690905E3D54FF40061016250E85F
:10541000000FD8F8001020F4907041E80002002A34
:1054200060D0D8F8000050E8000FD8F8001020F441
:10543000907041E80002002A54D0D8F8000050E8EB
:10544000000FD8F8001020F4907041E80002002A04
:1054500048D0D8F8000050E8000FD8F8001020F429
:10546000907041E80002EAB3D8F80000CFE700BF2F
:105470000320BDE8F08100BF0821016250E8000F61
:10548000D8F8001020F4907041E80002002A00F0E3
:105490009780D8F8000050E8000FD8F8001020F4EA
:1054A000907041E80002002A00F08A80D8F80000DD
:1054B00050E8000FD8F8001020F4907041E8000286
:1054C000002A7DD0D8F8000050E8000FD8F800106E
:1054D00020F4907041E80002002A71D0D8F8000052
:1054E000CCE700BF4FF6FE70CEF6FF70D8F8001084
:1054F00051E8021FD8F80020014042E80213F3B13E
:10550000D8F8001051E8021FD8F80020014042E806
:105510000213A3B1D8F8001051E8021FD8F80020F8
:10552000014042E8021353B1D8F8001051E8021FBD
:10553000D8F80020014042E80213002BD6D1D8F859
:105540006C0001282CD1D8F8000050E8000FD8F8E2
:10555000001020F0100041E800020AB3D8F8000063
:1055600050E8000FD8F8001020F0100041E80002C9
:10557000B2B1D8F8000050E8000FD8F8001020F0C1
:10558000100041E800025AB1D8F8000050E8000FBE
:10559000D8F8001020F0100041E80002002AD2D113
:1055A00020200021C8F88C00C8F86C10C8F87410CE
:1055B000C8F89000032088F88410BDE8F08100BF8F
:1055C0004FF6FE70CEF6FF70D8F8001051E8021FBB
:1055D000D8F80020014042E80213F3B1D8F80010D7
:1055E00051E8021FD8F80020014042E80213A3B19D
:1055F000D8F8001051E8021FD8F80020014042E816
:10560000021353B1D8F8001051E8021FD8F8002057
:10561000014042E80213002BD6D1D8F86C000128D3
:105620002CD1D8F8000050E8000FD8F8001020F076
:10563000100041E800020AB3D8F8000050E8000F5B
:10564000D8F8001020F0100041E80002B2B1D8F8FC
:10565000000050E8000FD8F8001020F0100041E8DA
:1056600000025AB1D8F8000050E8000FD8F8001036
:1056700020F0100041E80002002AD2D12020C8F812
:105680008C0000200821C8F86C00C8F87400C8F825
:10569000901088F884000120BDE8F081FEE700004A
:1056A000B0B52DED028B10EE100AB0EE408AFAF77D
:1056B000B4FEB5EE408A0446F1EE10FA0D4608DD60
:1056C0009FED110B204653EC102B2946FAF78AFE6A
:1056D00070B99FED0B0B204653EC102B2946FAF7BF
:1056E000DAFDFAF7ADFE00EE100ABDEC028BB0BD9C
:1056F0009FED070ABDEC028BB0BD00BF00BF00BF2D
:105700009A9999999999C93F5AD8D30E7F0D094012
:10571000D00F49C080B582B0019040F28430C2F20F
:10572000000001A901220A23FEF76CFB019802B0D8
:1057300080BD0000002180EC030AC0E90311C0E92C
:105740000511C16180ED082AC0ED091A70470000FB
:105750009EB0FBF7D7FE002400201694CDE9144438
:10576000CDE91244FBF76AFF012010904FF480301E
:1057700011900220032555211790CDE91850CDE94D
:105780001A10CDE91C0010A8FCF720FB20B1EFF3A4
:10579000108072B6FEE700BF0F20CDE90B050BA805
:1057A0000421CDE90D440F94FCF71CF920B1EFF36F
:1057B000108072B6FEE700BFFEF7E6FDFEF780FE42
:1057C000FEF754FEFEF73CFDFEF78EFDFEF724FFCC
:1057D000FEF7CAFDFEF7C6FC40F21C04C2F200044C
:1057E0002046FEF7D1FB40F26C10B5EE000AC2F283
:1057F0000000B1EE041AF7EE001AF0EE400AFEF7D0
:10580000C1FC40F21849C2F200090FF27C0800BF47
:105810004FF0904010210122FBF75AFE99ED000A4B
:10582000FFF73EFFE06BB4F94660B4F94470B4F999
:1058300032A0B4F94C5089ED000AFAF7EEFD41ECC4
:10584000180B206EFAF7E9FD41EC190BE06EFAF740
:10585000E4FD41EC1A0BA06EFAF7DFFD41EC100BF2
:1058600002A880EC068B404631463A4653460095E6
:105870008DED080B00F01AF84FF090401021002237
:10588000FBF726FEC4E700BF25642C25642C2564A5
:105890002C25642C252E34662C252E34662C252EA2
:1058A00034662C252E34660A000000000FB4054B28
:1058B00010B503A9044A029800F0DAF810BC5DF8AC
:1058C00014FB0000155700080000002002E008C883
:1058D000121F08C1002AFAD170477047002001E06A
:1058E00001C1121F002AFBD1704700002DE9FF5FA4
:1058F00082B00021DDE90430020DDDF840B0034341
:1059000018D044F61050A2F2FF32424315141198F9
:1059100001281FD0A5EB0B00401C5FEA000A4FF0E6
:1059200000064E4FDFF83891B046504615D5CAF103
:10593000000413E0119801244AA3012801D16FEA61
:105940000B010298119AC0E90031C0E9024206B089
:10595000BDE8F09FCBF10000DFE704460021404A9C
:10596000491842EB0450CDE9001012E0E00707D0DF
:1059700032463B4640464946FAF759FE804689463C
:1059800032463B4610461946FAF751FE06460F4688
:105990006410002CEAD1DDE90401DDE90023BAF14D
:1059A000000F06DAFAF743FE42464B46FAF73FFE8F
:1059B00005E0FAF7AEFE42464B46FAF7AAFE044669
:1059C0000E460022284BFAF72BFF03D84FF0FF308A
:1059D000014607E00022254B20463146FAF75BFCE2
:1059E000FAF706FF102409E0002C0ADB0A22002344
:1059F000FAF70EFC039B30321A55641E50EA01027E
:105A0000F2D1641C039AC4F111031444119A012ABF
:105A100003D0012208430DD10AE0084304D000203E
:105A20004FF0110B119072E7A3EB0B056D1E0DE00B
:105A30005B4504DD4FF0000205F1010504E003DAE7
:105A40004FF00002A5F10105002AECD0029811994F
:105A5000C0E90231C0E9004579E7000000001440C8
:105A60000000F03F300000000000F0430000E03F85
:105A70002DE9FF4F95B09B468946064600250FE26B
:105A8000252877D100242746F84A0121059400E013
:105A9000044316F8013F203B01FA03F01042F7D10E
:105AA00030782A2811D06FF02F033078A0F130021F
:105AB000092A16D8059A44F0020402EB820203EB8D
:105AC00042021044761C0590EFE759F8042B05922A
:105AD000002A03DA504244F40054059044F00204D2
